{
  "address": "0x7C89AFf09487D95DAA5f3053a5772B41A2F3D817",
  "abi": [
    {
      "constant": true,
      "inputs": [
        {
          "name": "_interfaceID",
          "type": "bytes4"
        }
      ],
      "name": "supportsInterface",
      "outputs": [
        {
          "name": "",
          "type": "bool"
        }
      ],
      "payable": false,
      "stateMutability": "view",
      "type": "function"
    },
    {
      "constant": true,
      "inputs": [],
      "name": "TOKEN_LIMIT",
      "outputs": [
        {
          "name": "",
          "type": "uint256"
        }
      ],
      "payable": false,
      "stateMutability": "view",
      "type": "function"
    },
    {
      "constant": true,
      "inputs": [],
      "name": "name",
      "outputs": [
        {
          "name": "_name",
          "type": "string"
        }
      ],
      "payable": false,
      "stateMutability": "view",
      "type": "function"
    },
    {
      "constant": true,
      "inputs": [
        {
          "name": "_tokenId",
          "type": "uint256"
        }
      ],
      "name": "getApproved",
      "outputs": [
        {
          "name": "",
          "type": "address"
        }
      ],
      "payable": false,
      "stateMutability": "view",
      "type": "function"
    },
    {
      "constant": false,
      "inputs": [
        {
          "name": "_approved",
          "type": "address"
        },
        {
          "name": "_tokenId",
          "type": "uint256"
        }
      ],
      "name": "approve",
      "outputs": [],
      "payable": false,
      "stateMutability": "nonpayable",
      "type": "function"
    },
    {
      "constant": true,
      "inputs": [],
      "name": "ARTIST_PRINTS",
      "outputs": [
        {
          "name": "",
          "type": "uint256"
        }
      ],
      "payable": false,
      "stateMutability": "view",
      "type": "function"
    },
    {
      "constant": true,
      "inputs": [],
      "name": "totalSupply",
      "outputs": [
        {
          "name": "",
          "type": "uint256"
        }
      ],
      "payable": false,
      "stateMutability": "view",
      "type": "function"
    },
    {
      "constant": false,
      "inputs": [
        {
          "name": "_from",
          "type": "address"
        },
        {
          "name": "_to",
          "type": "address"
        },
        {
          "name": "_tokenId",
          "type": "uint256"
        }
      ],
      "name": "transferFrom",
      "outputs": [],
      "payable": false,
      "stateMutability": "nonpayable",
      "type": "function"
    },
    {
      "constant": true,
      "inputs": [
        {
          "name": "_owner",
          "type": "address"
        },
        {
          "name": "_index",
          "type": "uint256"
        }
      ],
      "name": "tokenOfOwnerByIndex",
      "outputs": [
        {
          "name": "",
          "type": "uint256"
        }
      ],
      "payable": false,
      "stateMutability": "view",
      "type": "function"
    },
    {
      "constant": true,
      "inputs": [],
      "name": "BENEFICIARY",
      "outputs": [
        {
          "name": "",
          "type": "address"
        }
      ],
      "payable": false,
      "stateMutability": "view",
      "type": "function"
    },
    {
      "constant": false,
      "inputs": [
        {
          "name": "_tokenId",
          "type": "uint256"
        },
        {
          "name": "_defaultIndex",
          "type": "uint256"
        }
      ],
      "name": "setTokenIdDefaultIndex",
      "outputs": [],
      "payable": false,
      "stateMutability": "nonpayable",
      "type": "function"
    },
    {
      "constant": true,
      "inputs": [
        {
          "name": "_id",
          "type": "uint256"
        }
      ],
      "name": "symbolScheme",
      "outputs": [
        {
          "name": "",
          "type": "uint8"
        }
      ],
      "payable": false,
      "stateMutability": "view",
      "type": "function"
    },
    {
      "constant": true,
      "inputs": [
        {
          "name": "id",
          "type": "uint256"
        }
      ],
      "name": "draw",
      "outputs": [
        {
          "name": "",
          "type": "string"
        }
      ],
      "payable": false,
      "stateMutability": "view",
      "type": "function"
    },
    {
      "constant": false,
      "inputs": [
        {
          "name": "_from",
          "type": "address"
        },
        {
          "name": "_to",
          "type": "address"
        },
        {
          "name": "_tokenId",
          "type": "uint256"
        }
      ],
      "name": "safeTransferFrom",
      "outputs": [],
      "payable": false,
      "stateMutability": "nonpayable",
      "type": "function"
    },
    {
      "constant": true,
      "inputs": [
        {
          "name": "index",
          "type": "uint256"
        }
      ],
      "name": "tokenByIndex",
      "outputs": [
        {
          "name": "",
          "type": "uint256"
        }
      ],
      "payable": false,
      "stateMutability": "view",
      "type": "function"
    },
    {
      "constant": true,
      "inputs": [
        {
          "name": "_id",
          "type": "uint256"
        }
      ],
      "name": "creator",
      "outputs": [
        {
          "name": "",
          "type": "address"
        }
      ],
      "payable": false,
      "stateMutability": "view",
      "type": "function"
    },
    {
      "constant": true,
      "inputs": [
        {
          "name": "_tokenId",
          "type": "uint256"
        }
      ],
      "name": "ownerOf",
      "outputs": [
        {
          "name": "_owner",
          "type": "address"
        }
      ],
      "payable": false,
      "stateMutability": "view",
      "type": "function"
    },
    {
      "constant": true,
      "inputs": [
        {
          "name": "id",
          "type": "uint256"
        }
      ],
      "name": "getSymbol",
      "outputs": [
        {
          "name": "",
          "type": "bytes5"
        }
      ],
      "payable": false,
      "stateMutability": "view",
      "type": "function"
    },
    {
      "constant": true,
      "inputs": [
        {
          "name": "",
          "type": "uint256"
        }
      ],
      "name": "tokenIdDefaultIndex",
      "outputs": [
        {
          "name": "",
          "type": "uint256"
        }
      ],
      "payable": false,
      "stateMutability": "view",
      "type": "function"
    },
    {
      "constant": true,
      "inputs": [
        {
          "name": "_owner",
          "type": "address"
        }
      ],
      "name": "balanceOf",
      "outputs": [
        {
          "name": "",
          "type": "uint256"
        }
      ],
      "payable": false,
      "stateMutability": "view",
      "type": "function"
    },
    {
      "constant": true,
      "inputs": [
        {
          "name": "_tokenId",
          "type": "uint256"
        }
      ],
      "name": "viewCurrentTokenURI",
      "outputs": [
        {
          "name": "",
          "type": "string"
        }
      ],
      "payable": false,
      "stateMutability": "view",
      "type": "function"
    },
    {
      "constant": true,
      "inputs": [],
      "name": "PRICE",
      "outputs": [
        {
          "name": "",
          "type": "uint256"
        }
      ],
      "payable": false,
      "stateMutability": "view",
      "type": "function"
    },
    {
      "constant": true,
      "inputs": [],
      "name": "symbol",
      "outputs": [
        {
          "name": "_symbol",
          "type": "string"
        }
      ],
      "payable": false,
      "stateMutability": "view",
      "type": "function"
    },
    {
      "constant": false,
      "inputs": [
        {
          "name": "_operator",
          "type": "address"
        },
        {
          "name": "_approved",
          "type": "bool"
        }
      ],
      "name": "setApprovalForAll",
      "outputs": [],
      "payable": false,
      "stateMutability": "nonpayable",
      "type": "function"
    },
    {
      "constant": false,
      "inputs": [
        {
          "name": "_tokenId",
          "type": "uint256"
        }
      ],
      "name": "saveTokenURI",
      "outputs": [
        {
          "name": "",
          "type": "string"
        }
      ],
      "payable": false,
      "stateMutability": "nonpayable",
      "type": "function"
    },
    {
      "constant": false,
      "inputs": [
        {
          "name": "_from",
          "type": "address"
        },
        {
          "name": "_to",
          "type": "address"
        },
        {
          "name": "_tokenId",
          "type": "uint256"
        },
        {
          "name": "_data",
          "type": "bytes"
        }
      ],
      "name": "safeTransferFrom",
      "outputs": [],
      "payable": false,
      "stateMutability": "nonpayable",
      "type": "function"
    },
    {
      "constant": true,
      "inputs": [
        {
          "name": "_tokenId",
          "type": "uint256"
        }
      ],
      "name": "tokenURI",
      "outputs": [
        {
          "name": "",
          "type": "string"
        }
      ],
      "payable": false,
      "stateMutability": "view",
      "type": "function"
    },
    {
      "constant": true,
      "inputs": [
        {
          "name": "",
          "type": "uint256"
        },
        {
          "name": "",
          "type": "uint256"
        }
      ],
      "name": "tokenURIs",
      "outputs": [
        {
          "name": "",
          "type": "string"
        }
      ],
      "payable": false,
      "stateMutability": "view",
      "type": "function"
    },
    {
      "constant": true,
      "inputs": [
        {
          "name": "_tokenId",
          "type": "uint256"
        },
        {
          "name": "_index",
          "type": "uint256"
        }
      ],
      "name": "viewSpecificTokenURI",
      "outputs": [
        {
          "name": "",
          "type": "string"
        }
      ],
      "payable": false,
      "stateMutability": "view",
      "type": "function"
    },
    {
      "constant": false,
      "inputs": [
        {
          "name": "seed",
          "type": "uint256"
        }
      ],
      "name": "createGlyph",
      "outputs": [
        {
          "name": "",
          "type": "string"
        }
      ],
      "payable": true,
      "stateMutability": "payable",
      "type": "function"
    },
    {
      "constant": true,
      "inputs": [
        {
          "name": "_owner",
          "type": "address"
        },
        {
          "name": "_operator",
          "type": "address"
        }
      ],
      "name": "isApprovedForAll",
      "outputs": [
        {
          "name": "",
          "type": "bool"
        }
      ],
      "payable": false,
      "stateMutability": "view",
      "type": "function"
    },
    {
      "anonymous": false,
      "inputs": [
        {
          "indexed": true,
          "name": "index",
          "type": "uint256"
        },
        {
          "indexed": true,
          "name": "a",
          "type": "address"
        },
        {
          "indexed": false,
          "name": "value",
          "type": "string"
        }
      ],
      "name": "Generated",
      "type": "event"
    },
    {
      "anonymous": false,
      "inputs": [
        {
          "indexed": true,
          "name": "_from",
          "type": "address"
        },
        {
          "indexed": true,
          "name": "_to",
          "type": "address"
        },
        {
          "indexed": true,
          "name": "_tokenId",
          "type": "uint256"
        }
      ],
      "name": "Transfer",
      "type": "event"
    },
    {
      "anonymous": false,
      "inputs": [
        {
          "indexed": true,
          "name": "_owner",
          "type": "address"
        },
        {
          "indexed": true,
          "name": "_approved",
          "type": "address"
        },
        {
          "indexed": true,
          "name": "_tokenId",
          "type": "uint256"
        }
      ],
      "name": "Approval",
      "type": "event"
    },
    {
      "anonymous": false,
      "inputs": [
        {
          "indexed": true,
          "name": "_owner",
          "type": "address"
        },
        {
          "indexed": true,
          "name": "_operator",
          "type": "address"
        },
        {
          "indexed": false,
          "name": "_approved",
          "type": "bool"
        }
      ],
      "name": "ApprovalForAll",
      "type": "event"
    }
  ],
  "transactionHash": "0xeed18c335d19de803e4e141fdfe7269d27aecb7dce9ace0d2f7678fc7bad9b8f",
  "args": [],
  "solcInputHash": "516f82b6a9c9262da28fb855c36333ab",
  "bytecode": "0x608060405260006006556040805190810160405280600a81526020017f4175746f676c79706873000000000000000000000000000000000000000000008152506007908051906020019062000056929190620002b1565b506040805190810160405280600381526020017fe298b5000000000000000000000000000000000000000000000000000000000081525060089080519060200190620000a4929190620002b1565b506040805190810160405280601e81526020017f646174613a746578742f706c61696e3b636861727365743d7574662d382c0000815250600f9080519060200190620000f292919062000338565b506001600560006301ffc9a77c0100000000000000000000000000000000000000000000000000000000027bffffffffffffffffffffffffffffffffffffffffffffffffffffffff1916815260200190815260200160002060006101000a81548160ff0219169083151502179055506001600560006380ac58cd7c0100000000000000000000000000000000000000000000000000000000027bffffffffffffffffffffffffffffffffffffffffffffffffffffffff1916815260200190815260200160002060006101000a81548160ff02191690831515021790555060016005600063780e9d637c0100000000000000000000000000000000000000000000000000000000027bffffffffffffffffffffffffffffffffffffffffffffffffffffffff1916815260200190815260200160002060006101000a81548160ff021916908315150217905550600160056000635b5e139f7c0100000000000000000000000000000000000000000000000000000000027bffffffffffffffffffffffffffffffffffffffffffffffffffffffff1916815260200190815260200160002060006101000a81548160ff021916908315150217905550620003e7565b828054600181600116156101000203166002900490600052602060002090601f016020900481019282601f10620002f457805160ff191683800117855562000325565b8280016001018555821562000325579182015b828111156200032457825182559160200191906001019062000307565b5b509050620003349190620003bf565b5090565b828054600181600116156101000203166002900490600052602060002090601f016020900481019282601f106200037b57805160ff1916838001178555620003ac565b82800160010185558215620003ac579182015b82811115620003ab5782518255916020019190600101906200038e565b5b509050620003bb9190620003bf565b5090565b620003e491905b80821115620003e0576000816000905550600101620003c6565b5090565b90565b61399580620003f76000396000f30060806040526004361061018b576000357c0100000000000000000000000000000000000000000000000000000000900463ffffffff16806301ffc9a714610190578063031bd4c4146101f457806306fdde031461021f578063081812fc146102af578063095ea7b31461031c578063180f0afd1461036957806318160ddd1461039457806323b872dd146103bf5780632f745c591461042c5780632f99c6cc1461048d578063309627af146104e4578063397490641461051b5780633b3041471461056257806342842e0e146106085780634f6ccce714610675578063510b5158146106b65780636352211e146107235780636418413c1461079057806367242bb11461080d57806370a082311461084e57806375020395146108a55780638d859f3e1461094b57806395d89b4114610976578063a22cb46514610a06578063b4ad696214610a55578063b88d4fde14610afb578063c87b56dd14610b80578063c96afe8914610c26578063d5d922d814610cd6578063dba5a7f514610d86578063e985e9c514610e1f575b600080fd5b34801561019c57600080fd5b506101da60048036038101908080357bffffffffffffffffffffffffffffffffffffffffffffffffffffffff19169060200190929190505050610e9a565b604051808215151515815260200191505060405180910390f35b34801561020057600080fd5b50610209610f02565b6040518082815260200191505060405180910390f35b34801561022b57600080fd5b50610234610f08565b6040518080602001828103825283818151815260200191508051906020019080838360005b83811015610274578082015181840152602081019050610259565b50505050905090810190601f1680156102a15780820380516001836020036101000a031916815260200191505b509250505060405180910390f35b3480156102bb57600080fd5b506102da60048036038101908080359060200190929190505050610faa565b604051808273ffffffffffffffffffffffffffffffffffffffff1673ffffffffffffffffffffffffffffffffffffffff16815260200191505060405180910390f35b34801561032857600080fd5b50610367600480360381019080803573ffffffffffffffffffffffffffffffffffffffff16906020019092919080359060200190929190505050611058565b005b34801561037557600080fd5b5061037e6112f3565b6040518082815260200191505060405180910390f35b3480156103a057600080fd5b506103a96112f8565b6040518082815260200191505060405180910390f35b3480156103cb57600080fd5b5061042a600480360381019080803573ffffffffffffffffffffffffffffffffffffffff169060200190929190803573ffffffffffffffffffffffffffffffffffffffff16906020019092919080359060200190929190505050611302565b005b34801561043857600080fd5b50610477600480360381019080803573ffffffffffffffffffffffffffffffffffffffff1690602001909291908035906020019092919050505061159f565b6040518082815260200191505060405180910390f35b34801561049957600080fd5b506104a2611650565b604051808273ffffffffffffffffffffffffffffffffffffffff1673ffffffffffffffffffffffffffffffffffffffff16815260200191505060405180910390f35b3480156104f057600080fd5b506105196004803603810190808035906020019092919080359060200190929190505050611668565b005b34801561052757600080fd5b50610546600480360381019080803590602001909291905050506117cb565b604051808260ff1660ff16815260200191505060405180910390f35b34801561056e57600080fd5b5061058d600480360381019080803590602001909291905050506117f5565b6040518080602001828103825283818151815260200191508051906020019080838360005b838110156105cd5780820151818401526020810190506105b2565b50505050905090810190601f1680156105fa5780820380516001836020036101000a031916815260200191505b509250505060405180910390f35b34801561061457600080fd5b50610673600480360381019080803573ffffffffffffffffffffffffffffffffffffffff169060200190929190803573ffffffffffffffffffffffffffffffffffffffff16906020019092919080359060200190929190505050611cf1565b005b34801561068157600080fd5b506106a060048036038101908080359060200190929190505050611d12565b6040518082815260200191505060405180910390f35b3480156106c257600080fd5b506106e160048036038101908080359060200190929190505050611d2c565b604051808273ffffffffffffffffffffffffffffffffffffffff1673ffffffffffffffffffffffffffffffffffffffff16815260200191505060405180910390f35b34801561072f57600080fd5b5061074e60048036038101908080359060200190929190505050611d69565b604051808273ffffffffffffffffffffffffffffffffffffffff1673ffffffffffffffffffffffffffffffffffffffff16815260200191505060405180910390f35b34801561079c57600080fd5b506107bb60048036038101908080359060200190929190505050611de2565b60405180827affffffffffffffffffffffffffffffffffffffffffffffffffffff19167affffffffffffffffffffffffffffffffffffffffffffffffffffff1916815260200191505060405180910390f35b34801561081957600080fd5b506108386004803603810190808035906020019092919050505061215d565b6040518082815260200191505060405180910390f35b34801561085a57600080fd5b5061088f600480360381019080803573ffffffffffffffffffffffffffffffffffffffff169060200190929190505050612175565b6040518082815260200191505060405180910390f35b3480156108b157600080fd5b506108d0600480360381019080803590602001909291905050506121c2565b6040518080602001828103825283818151815260200191508051906020019080838360005b838110156109105780820151818401526020810190506108f5565b50505050905090810190601f16801561093d5780820380516001836020036101000a031916815260200191505b509250505060405180910390f35b34801561095757600080fd5b50610960612245565b6040518082815260200191505060405180910390f35b34801561098257600080fd5b5061098b612251565b6040518080602001828103825283818151815260200191508051906020019080838360005b838110156109cb5780820151818401526020810190506109b0565b50505050905090810190601f1680156109f85780820380516001836020036101000a031916815260200191505b509250505060405180910390f35b348015610a1257600080fd5b50610a53600480360381019080803573ffffffffffffffffffffffffffffffffffffffff1690602001909291908035151590602001909291905050506122f3565b005b348015610a6157600080fd5b50610a80600480360381019080803590602001909291905050506123f3565b6040518080602001828103825283818151815260200191508051906020019080838360005b83811015610ac0578082015181840152602081019050610aa5565b50505050905090810190601f168015610aed5780820380516001836020036101000a031916815260200191505b509250505060405180910390f35b348015610b0757600080fd5b50610b7e600480360381019080803573ffffffffffffffffffffffffffffffffffffffff169060200190929190803573ffffffffffffffffffffffffffffffffffffffff169060200190929190803590602001909291908035906020019082018035906020019190919293919293905050506125a1565b005b348015610b8c57600080fd5b50610bab600480360381019080803590602001909291905050506125e6565b6040518080602001828103825283818151815260200191508051906020019080838360005b83811015610beb578082015181840152602081019050610bd0565b50505050905090810190601f168015610c185780820380516001836020036101000a031916815260200191505b509250505060405180910390f35b348015610c3257600080fd5b50610c5b600480360381019080803590602001909291908035906020019092919050505061273c565b6040518080602001828103825283818151815260200191508051906020019080838360005b83811015610c9b578082015181840152602081019050610c80565b50505050905090810190601f168015610cc85780820380516001836020036101000a031916815260200191505b509250505060405180910390f35b348015610ce257600080fd5b50610d0b6004803603810190808035906020019092919080359060200190929190505050612804565b6040518080602001828103825283818151815260200191508051906020019080838360005b83811015610d4b578082015181840152602081019050610d30565b50505050905090810190601f168015610d785780820380516001836020036101000a031916815260200191505b509250505060405180910390f35b610da4600480360381019080803590602001909291905050506128d1565b6040518080602001828103825283818151815260200191508051906020019080838360005b83811015610de4578082015181840152602081019050610dc9565b50505050905090810190601f168015610e115780820380516001836020036101000a031916815260200191505b509250505060405180910390f35b348015610e2b57600080fd5b50610e80600480360381019080803573ffffffffffffffffffffffffffffffffffffffff169060200190929190803573ffffffffffffffffffffffffffffffffffffffff1690602001909291905050506128e4565b604051808215151515815260200191505060405180910390f35b600060056000837bffffffffffffffffffffffffffffffffffffffffffffffffffffffff19167bffffffffffffffffffffffffffffffffffffffffffffffffffffffff1916815260200190815260200160002060009054906101000a900460ff169050919050565b61020081565b606060078054600181600116156101000203166002900480601f016020809104026020016040519081016040528092919081815260200182805460018160011615610100020316600290048015610fa05780601f10610f7557610100808354040283529160200191610fa0565b820191906000526020600020905b815481529060010190602001808311610f8357829003601f168201915b5050505050905090565b600081600073ffffffffffffffffffffffffffffffffffffffff166002600083815260200190815260200160002060009054906101000a900473ffffffffffffffffffffffffffffffffffffffff1673ffffffffffffffffffffffffffffffffffffffff161415151561101c57600080fd5b6001600084815260200190815260200160002060009054906101000a900473ffffffffffffffffffffffffffffffffffffffff16915050919050565b60008160006002600083815260200190815260200160002060009054906101000a900473ffffffffffffffffffffffffffffffffffffffff1690503373ffffffffffffffffffffffffffffffffffffffff168173ffffffffffffffffffffffffffffffffffffffff16148061115257506000808273ffffffffffffffffffffffffffffffffffffffff1673ffffffffffffffffffffffffffffffffffffffff16815260200190815260200160002060003373ffffffffffffffffffffffffffffffffffffffff1673ffffffffffffffffffffffffffffffffffffffff16815260200190815260200160002060009054906101000a900460ff165b151561115d57600080fd5b83600073ffffffffffffffffffffffffffffffffffffffff166002600083815260200190815260200160002060009054906101000a900473ffffffffffffffffffffffffffffffffffffffff1673ffffffffffffffffffffffffffffffffffffffff16141515156111cd57600080fd5b6002600086815260200190815260200160002060009054906101000a900473ffffffffffffffffffffffffffffffffffffffff1693508373ffffffffffffffffffffffffffffffffffffffff168673ffffffffffffffffffffffffffffffffffffffff161415151561123e57600080fd5b856001600087815260200190815260200160002060006101000a81548173ffffffffffffffffffffffffffffffffffffffff021916908373ffffffffffffffffffffffffffffffffffffffff160217905550848673ffffffffffffffffffffffffffffffffffffffff168573ffffffffffffffffffffffffffffffffffffffff167f8c5be1e5ebec7d5bd14f71427d1e84f3dd0314c0f7b2291e5b200ac8c7c3b92560405160405180910390a4505050505050565b608081565b6000600654905090565b60008160006002600083815260200190815260200160002060009054906101000a900473ffffffffffffffffffffffffffffffffffffffff1690503373ffffffffffffffffffffffffffffffffffffffff168173ffffffffffffffffffffffffffffffffffffffff1614806113d557503373ffffffffffffffffffffffffffffffffffffffff166001600084815260200190815260200160002060009054906101000a900473ffffffffffffffffffffffffffffffffffffffff1673ffffffffffffffffffffffffffffffffffffffff16145b8061146557506000808273ffffffffffffffffffffffffffffffffffffffff1673ffffffffffffffffffffffffffffffffffffffff16815260200190815260200160002060003373ffffffffffffffffffffffffffffffffffffffff1673ffffffffffffffffffffffffffffffffffffffff16815260200190815260200160002060009054906101000a900460ff165b151561147057600080fd5b83600073ffffffffffffffffffffffffffffffffffffffff166002600083815260200190815260200160002060009054906101000a900473ffffffffffffffffffffffffffffffffffffffff1673ffffffffffffffffffffffffffffffffffffffff16141515156114e057600080fd5b6002600086815260200190815260200160002060009054906101000a900473ffffffffffffffffffffffffffffffffffffffff1693508673ffffffffffffffffffffffffffffffffffffffff168473ffffffffffffffffffffffffffffffffffffffff1614151561155057600080fd5b600073ffffffffffffffffffffffffffffffffffffffff168673ffffffffffffffffffffffffffffffffffffffff161415151561158c57600080fd5b6115968686612977565b50505050505050565b6000600460008473ffffffffffffffffffffffffffffffffffffffff1673ffffffffffffffffffffffffffffffffffffffff16815260200190815260200160002080549050821015156115f157600080fd5b600460008473ffffffffffffffffffffffffffffffffffffffff1673ffffffffffffffffffffffffffffffffffffffff1681526020019081526020016000208281548110151561163d57fe5b9060005260206000200154905092915050565b7350990f09d4f0cb864b8e046e7edc749de410916b81565b81600073ffffffffffffffffffffffffffffffffffffffff166002600083815260200190815260200160002060009054906101000a900473ffffffffffffffffffffffffffffffffffffffff1673ffffffffffffffffffffffffffffffffffffffff16141515156116d857600080fd5b3373ffffffffffffffffffffffffffffffffffffffff166009600085815260200190815260200160002060009054906101000a900473ffffffffffffffffffffffffffffffffffffffff1673ffffffffffffffffffffffffffffffffffffffff161415156117ae576040517f08c379a00000000000000000000000000000000000000000000000000000000081526004018080602001828103825260138152602001807f4f6e6c79206f776e65722063616e2063616c6c0000000000000000000000000081525060200191505060405180910390fd5b81600d600085815260200190815260200160002081905550505050565b6000600a600083815260200190815260200160002060009054906101000a900460ff169050919050565b60606000606060008060008060008060008060006060600b60008f8152602001908152602001600020544360405160200180838152602001828152602001925050506040516020818303038152906040526040518082805190602001908083835b60208310151561187b5780518252602082019150602081019050602083039250611856565b6001836020036101000a03801982511681845116808217855250505050505090500191505060405180910390206001900473ffffffffffffffffffffffffffffffffffffffff169b50601e6003604001604002016040519080825280601f01601f1916602001820160405280156119015781602001602082028038833980820191505090505b509a50600099505b601e8a10156119c257600f8a815460018160011615610100020316600290048110151561193257fe5b8154600116156119515790600052602060002090602091828204019190065b9054901a7f0100000000000000000000000000000000000000000000000000000000000000028b8b81518110151561198557fe5b9060200101907effffffffffffffffffffffffffffffffffffffffffffffffffffffffffffff1916908160001a90535089806001019a5050611909565b600098506000975060009650600095506005600b8d8115156119e057fe5b060194506119ed8e611de2565b9350600092505b6040831215611cda57600160026040811515611a0c57fe5b058403600202019750600160038d811515611a2357fe5b061415611a3557876000039750611a57565b600260038d811515611a4357fe5b061415611a5657611a5388612a2c565b97505b5b8b88029750600091505b6040821215611b8f57600160026040811515611a7957fe5b058303600202019850600160028d811515611a9057fe5b061415611aa357611aa089612a2c565b98505b8b8902985084640100000000898b02811515611abb57fe5b05811515611ac557fe5b0696506005871015611b2c578387600581101515611adf57fe5b1a7f0100000000000000000000000000000000000000000000000000000000000000027f010000000000000000000000000000000000000000000000000000000000000090049550611b31565b602e95505b60f8869060020a026001028b8b815181101515611b4a57fe5b9060200101907effffffffffffffffffffffffffffffffffffffffffffffffffffffffffffff1916908160001a90535089806001019a50508180600101925050611a61565b60257f0100000000000000000000000000000000000000000000000000000000000000028b8b815181101515611bc157fe5b9060200101907effffffffffffffffffffffffffffffffffffffffffffffffffffffffffffff1916908160001a90535089806001019a505060307f0100000000000000000000000000000000000000000000000000000000000000028b8b815181101515611c2b57fe5b9060200101907effffffffffffffffffffffffffffffffffffffffffffffffffffffffffffff1916908160001a90535089806001019a505060417f0100000000000000000000000000000000000000000000000000000000000000028b8b815181101515611c9557fe5b9060200101907effffffffffffffffffffffffffffffffffffffffffffffffffffffffffffff1916908160001a90535089806001019a505082806001019350506119f4565b8a9050809c50505050505050505050505050919050565b611d0d8383836020604051908101604052806000815250612a4b565b505050565b600060065482101515611d2457600080fd5b819050919050565b60006009600083815260200190815260200160002060009054906101000a900473ffffffffffffffffffffffffffffffffffffffff169050919050565b60006002600083815260200190815260200160002060009054906101000a900473ffffffffffffffffffffffffffffffffffffffff169050600073ffffffffffffffffffffffffffffffffffffffff168173ffffffffffffffffffffffffffffffffffffffff1614151515611ddd57600080fd5b919050565b6000806000600a600085815260200190815260200160002060009054906101000a900460ff1660ff161415611e1657600080fd5b6001600a600085815260200190815260200160002060009054906101000a900460ff1660ff161415611e6d57642e582f5c2e7b01000000000000000000000000000000000000000000000000000000029050612154565b6002600a600085815260200190815260200160002060009054906101000a900460ff1660ff161415611ec457642e2b2d7c2e7b01000000000000000000000000000000000000000000000000000000029050612153565b6003600a600085815260200190815260200160002060009054906101000a900460ff1660ff161415611f1b57642e2f5c2e2e7b01000000000000000000000000000000000000000000000000000000029050612152565b6004600a600085815260200190815260200160002060009054906101000a900460ff1660ff161415611f7257642e5c7c2d2f7b01000000000000000000000000000000000000000000000000000000029050612151565b6005600a600085815260200190815260200160002060009054906101000a900460ff1660ff161415611fc957642e4f7c2d2e7b01000000000000000000000000000000000000000000000000000000029050612150565b6006600a600085815260200190815260200160002060009054906101000a900460ff1660ff16141561202057642e5c5c2e2e7b0100000000000000000000000000000000000000000000000000000002905061214f565b6007600a600085815260200190815260200160002060009054906101000a900460ff1660ff16141561207757642e237c2d2b7b0100000000000000000000000000000000000000000000000000000002905061214e565b6008600a600085815260200190815260200160002060009054906101000a900460ff1660ff1614156120ce57642e4f4f2e2e7b0100000000000000000000000000000000000000000000000000000002905061214d565b6009600a600085815260200190815260200160002060009054906101000a900460ff1660ff16141561212557642e232e2e2e7b0100000000000000000000000000000000000000000000000000000002905061214c565b642e234f2e2e7b010000000000000000000000000000000000000000000000000000000290505b5b5b5b5b5b5b5b5b80915050919050565b600d6020528060005260406000206000915090505481565b60008073ffffffffffffffffffffffffffffffffffffffff168273ffffffffffffffffffffffffffffffffffffffff16141515156121b257600080fd5b6121bb82612eea565b9050919050565b606081600073ffffffffffffffffffffffffffffffffffffffff166002600083815260200190815260200160002060009054906101000a900473ffffffffffffffffffffffffffffffffffffffff1673ffffffffffffffffffffffffffffffffffffffff161415151561223457600080fd5b61223d836117f5565b915050919050565b6702c68af0bb14000081565b606060088054600181600116156101000203166002900480601f0160208091040260200160405190810160405280929190818152602001828054600181600116156101000203166002900480156122e95780601f106122be576101008083540402835291602001916122e9565b820191906000526020600020905b8154815290600101906020018083116122cc57829003601f168201915b5050505050905090565b806000803373ffffffffffffffffffffffffffffffffffffffff1673ffffffffffffffffffffffffffffffffffffffff16815260200190815260200160002060008473ffffffffffffffffffffffffffffffffffffffff1673ffffffffffffffffffffffffffffffffffffffff16815260200190815260200160002060006101000a81548160ff0219169083151502179055508173ffffffffffffffffffffffffffffffffffffffff163373ffffffffffffffffffffffffffffffffffffffff167f17307eab39ab6107e8899845ad3d59bd9653f200f220920489ca2b5937696c3183604051808215151515815260200191505060405180910390a35050565b60608082600073ffffffffffffffffffffffffffffffffffffffff166002600083815260200190815260200160002060009054906101000a900473ffffffffffffffffffffffffffffffffffffffff1673ffffffffffffffffffffffffffffffffffffffff161415151561246657600080fd5b3373ffffffffffffffffffffffffffffffffffffffff166009600086815260200190815260200160002060009054906101000a900473ffffffffffffffffffffffffffffffffffffffff1673ffffffffffffffffffffffffffffffffffffffff1614151561253c576040517f08c379a00000000000000000000000000000000000000000000000000000000081526004018080602001828103825260138152602001807f4f6e6c79206f776e65722063616e2063616c6c0000000000000000000000000081525060200191505060405180910390fd5b612545846117f5565b9150600e6000858152602001908152602001600020829080600181540180825580915050906001820390600052602060002001600090919290919091509080519060200190612595929190613898565b50508192505050919050565b6125df85858585858080601f016020809104026020016040519081016040528093929190818152602001838380828437820191505050505050612a4b565b5050505050565b6060600082600073ffffffffffffffffffffffffffffffffffffffff166002600083815260200190815260200160002060009054906101000a900473ffffffffffffffffffffffffffffffffffffffff1673ffffffffffffffffffffffffffffffffffffffff161415151561265a57600080fd5b600d6000858152602001908152602001600020549150600e60008581526020019081526020016000208281548110151561269057fe5b906000526020600020018054600181600116156101000203166002900480601f01602080910402602001604051908101604052809291908181526020018280546001816001161561010002031660029004801561272e5780601f106127035761010080835404028352916020019161272e565b820191906000526020600020905b81548152906001019060200180831161271157829003601f168201915b505050505092505050919050565b600e6020528160005260406000208181548110151561275757fe5b90600052602060002001600091509150508054600181600116156101000203166002900480601f0160208091040260200160405190810160405280929190818152602001828054600181600116156101000203166002900480156127fc5780601f106127d1576101008083540402835291602001916127fc565b820191906000526020600020905b8154815290600101906020018083116127df57829003601f168201915b505050505081565b6060600e60008481526020019081526020016000208281548110151561282657fe5b906000526020600020018054600181600116156101000203166002900480601f0160208091040260200160405190810160405280929190818152602001828054600181600116156101000203166002900480156128c45780601f10612899576101008083540402835291602001916128c4565b820191906000526020600020905b8154815290600101906020018083116128a757829003601f168201915b5050505050905092915050565b60606128dd3383612f36565b9050919050565b60008060008473ffffffffffffffffffffffffffffffffffffffff1673ffffffffffffffffffffffffffffffffffffffff16815260200190815260200160002060008373ffffffffffffffffffffffffffffffffffffffff1673ffffffffffffffffffffffffffffffffffffffff16815260200190815260200160002060009054906101000a900460ff16905092915050565b60006002600083815260200190815260200160002060009054906101000a900473ffffffffffffffffffffffffffffffffffffffff1690506129b882613394565b6129c28183613437565b6129cc838361366d565b818373ffffffffffffffffffffffffffffffffffffffff168273ffffffffffffffffffffffffffffffffffffffff167fddf252ad1be2c89b69c2b068fc378daa952ba7f163c4a11628f55a4df523b3ef60405160405180910390a4505050565b60008082121515612a3f57819050612a46565b8160000390505b919050565b6000808360006002600083815260200190815260200160002060009054906101000a900473ffffffffffffffffffffffffffffffffffffffff1690503373ffffffffffffffffffffffffffffffffffffffff168173ffffffffffffffffffffffffffffffffffffffff161480612b1f57503373ffffffffffffffffffffffffffffffffffffffff166001600084815260200190815260200160002060009054906101000a900473ffffffffffffffffffffffffffffffffffffffff1673ffffffffffffffffffffffffffffffffffffffff16145b80612baf57506000808273ffffffffffffffffffffffffffffffffffffffff1673ffffffffffffffffffffffffffffffffffffffff16815260200190815260200160002060003373ffffffffffffffffffffffffffffffffffffffff1673ffffffffffffffffffffffffffffffffffffffff16815260200190815260200160002060009054906101000a900460ff165b1515612bba57600080fd5b85600073ffffffffffffffffffffffffffffffffffffffff166002600083815260200190815260200160002060009054906101000a900473ffffffffffffffffffffffffffffffffffffffff1673ffffffffffffffffffffffffffffffffffffffff1614151515612c2a57600080fd5b6002600088815260200190815260200160002060009054906101000a900473ffffffffffffffffffffffffffffffffffffffff1694508873ffffffffffffffffffffffffffffffffffffffff168573ffffffffffffffffffffffffffffffffffffffff16141515612c9a57600080fd5b600073ffffffffffffffffffffffffffffffffffffffff168873ffffffffffffffffffffffffffffffffffffffff1614151515612cd657600080fd5b612ce08888612977565b612ce9886137b8565b15612edf578773ffffffffffffffffffffffffffffffffffffffff1663150b7a02338b8a8a6040518563ffffffff167c0100000000000000000000000000000000000000000000000000000000028152600401808573ffffffffffffffffffffffffffffffffffffffff1673ffffffffffffffffffffffffffffffffffffffff1681526020018473ffffffffffffffffffffffffffffffffffffffff1673ffffffffffffffffffffffffffffffffffffffff16815260200183815260200180602001828103825283818151815260200191508051906020019080838360005b83811015612de3578082015181840152602081019050612dc8565b50505050905090810190601f168015612e105780820380516001836020036101000a031916815260200191505b5095505050505050602060405180830381600087803b158015612e3257600080fd5b505af1158015612e46573d6000803e3d6000fd5b505050506040513d6020811015612e5c57600080fd5b8101908080519060200190929190505050935063150b7a027c0100000000000000000000000000000000000000000000000000000000027bffffffffffffffffffffffffffffffffffffffffffffffffffffffff1916847bffffffffffffffffffffffffffffffffffffffffffffffffffffffff1916141515612ede57600080fd5b5b505050505050505050565b6000600460008373ffffffffffffffffffffffffffffffffffffffff1673ffffffffffffffffffffffffffffffffffffffff168152602001908152602001600020805490509050919050565b606060008060006060600073ffffffffffffffffffffffffffffffffffffffff168773ffffffffffffffffffffffffffffffffffffffff1614151515612f7b57600080fd5b610200600654101515612f8d57600080fd5b600093506080600654101515612fb8576702c68af0bb1400009350833410151515612fb757600080fd5b5b6000600c600088815260200190815260200160002054141515612fda57600080fd5b6001600654019250866009600085815260200190815260200160002060006101000a81548173ffffffffffffffffffffffffffffffffffffffff021916908373ffffffffffffffffffffffffffffffffffffffff16021790555085600b60008581526020019081526020016000208190555082600c60008881526020019081526020016000208190555085604051602001808281526020019150506040516020818303038152906040526040518082805190602001908083835b6020831015156130b95780518252602082019150602081019050602083039250613094565b6001836020036101000a03801982511681845116808217855250505050505090500191505060405180910390206001900473ffffffffffffffffffffffffffffffffffffffff16915061310b826137cb565b600a600085815260200190815260200160002060006101000a81548160ff021916908360ff16021790555061313f836117f5565b9050600e600084815260200190815260200160002081908060018154018082558091505090600182039060005260206000200160009091929091909150908051906020019061318f929190613898565b50506000600d6000858152602001908152602001600020819055508673ffffffffffffffffffffffffffffffffffffffff16837fa197d2acc8f19f456842a59ba3699aa028ad72b616fd9c26679a516e7443683e836040518080602001828103825283818151815260200191508051906020019080838360005b83811015613224578082015181840152602081019050613209565b50505050905090810190601f1680156132515780820380516001836020036101000a031916815260200191505b509250505060405180910390a3600160065401600681905550613274878461366d565b833411156132c6573373ffffffffffffffffffffffffffffffffffffffff166108fc8534039081150290604051600060405180830381858888f193505050501580156132c4573d6000803e3d6000fd5b505b600084111561332b577350990f09d4f0cb864b8e046e7edc749de410916b73ffffffffffffffffffffffffffffffffffffffff166108fc859081150290604051600060405180830381858888f19350505050158015613329573d6000803e3d6000fd5b505b828773ffffffffffffffffffffffffffffffffffffffff16600073ffffffffffffffffffffffffffffffffffffffff167fddf252ad1be2c89b69c2b068fc378daa952ba7f163c4a11628f55a4df523b3ef60405160405180910390a48094505050505092915050565b600073ffffffffffffffffffffffffffffffffffffffff166001600083815260200190815260200160002060009054906101000a900473ffffffffffffffffffffffffffffffffffffffff1673ffffffffffffffffffffffffffffffffffffffff16141515613434576001600082815260200190815260200160002060006101000a81549073ffffffffffffffffffffffffffffffffffffffff02191690555b50565b60008060008473ffffffffffffffffffffffffffffffffffffffff166002600086815260200190815260200160002060009054906101000a900473ffffffffffffffffffffffffffffffffffffffff1673ffffffffffffffffffffffffffffffffffffffff161415156134a957600080fd5b6002600085815260200190815260200160002060006101000a81549073ffffffffffffffffffffffffffffffffffffffff0219169055600360008581526020019081526020016000205492506001600460008773ffffffffffffffffffffffffffffffffffffffff1673ffffffffffffffffffffffffffffffffffffffff16815260200190815260200160002080549050039150828214151561361357600460008673ffffffffffffffffffffffffffffffffffffffff1673ffffffffffffffffffffffffffffffffffffffff1681526020019081526020016000208281548110151561359257fe5b9060005260206000200154905080600460008773ffffffffffffffffffffffffffffffffffffffff1673ffffffffffffffffffffffffffffffffffffffff168152602001908152602001600020848154811015156135ec57fe5b90600052602060002001819055508260036000838152602001908152602001600020819055505b600460008673ffffffffffffffffffffffffffffffffffffffff1673ffffffffffffffffffffffffffffffffffffffff1681526020019081526020016000208054809190600190036136659190613918565b505050505050565b60008073ffffffffffffffffffffffffffffffffffffffff166002600084815260200190815260200160002060009054906101000a900473ffffffffffffffffffffffffffffffffffffffff1673ffffffffffffffffffffffffffffffffffffffff161415156136dc57600080fd5b826002600084815260200190815260200160002060006101000a81548173ffffffffffffffffffffffffffffffffffffffff021916908373ffffffffffffffffffffffffffffffffffffffff160217905550600460008473ffffffffffffffffffffffffffffffffffffffff1673ffffffffffffffffffffffffffffffffffffffff16815260200190815260200160002082908060018154018082558091505090600182039060005260206000200160009091929091909150559050600181036003600084815260200190815260200160002081905550505050565b600080823b905060008111915050919050565b60008060006053848115156137dc57fe5b06915060148210156137f1576001905061388e565b6023821015613803576002905061388d565b6030821015613815576003905061388c565b603b821015613827576004905061388b565b6044821015613839576005905061388a565b604982101561384b5760069050613889565b604d82101561385d5760079050613888565b605082101561386f5760089050613887565b60528210156138815760099050613886565b600a90505b5b5b5b5b5b5b5b5b8092505050919050565b828054600181600116156101000203166002900490600052602060002090601f016020900481019282601f106138d957805160ff1916838001178555613907565b82800160010185558215613907579182015b828111156139065782518255916020019190600101906138eb565b5b5090506139149190613944565b5090565b81548183558181111561393f5781836000526020600020918201910161393e9190613944565b5b505050565b61396691905b8082111561396257600081600090555060010161394a565b5090565b905600a165627a7a723058201c1c8356c243f0cb6295f23528e7294c8c99fd241ef1d0836e1bbacef1b492830029",
  "devdoc": {
    "methods": {
      "approve(address,uint256)": {
        "details": "Set or reaffirm the approved address for an NFT. This function can be changed to payable.\r",
        "params": {
          "_approved": "Address to be approved for the given NFT ID.\r",
          "_tokenId": "ID of the token to be approved.\r"
        }
      },
      "balanceOf(address)": {
        "details": "Returns the number of NFTs owned by `_owner`. NFTs assigned to the zero address are\r considered invalid, and this function throws for queries about the zero address.\r",
        "params": {
          "_owner": "Address for whom to query the balance.\r"
        },
        "return": "Balance of _owner.\r"
      },
      "getApproved(uint256)": {
        "details": "Get the approved address for a single NFT.\r",
        "params": {
          "_tokenId": "ID of the NFT to query the approval of.\r"
        },
        "return": "Address that _tokenId is approved for.\r"
      },
      "isApprovedForAll(address,address)": {
        "details": "Checks if `_operator` is an approved operator for `_owner`.\r",
        "params": {
          "_operator": "The address that acts on behalf of the owner.\r",
          "_owner": "The address that owns the NFTs.\r"
        },
        "return": "True if approved for all, false otherwise.\r"
      },
      "name()": {
        "details": "Returns a descriptive name for a collection of NFTokens.\r",
        "return": "Representing name.\r"
      },
      "ownerOf(uint256)": {
        "details": "Returns the address of the owner of the NFT. NFTs assigned to zero address are considered\r invalid, and queries about them do throw.\r",
        "params": {
          "_tokenId": "The identifier for an NFT.\r"
        },
        "return": "Address of _tokenId owner.\r"
      },
      "safeTransferFrom(address,address,uint256)": {
        "details": "Transfers the ownership of an NFT from one address to another address. This function can\r be changed to payable.\r",
        "params": {
          "_from": "The current owner of the NFT.\r",
          "_to": "The new owner.\r",
          "_tokenId": "The NFT to transfer.\r"
        }
      },
      "safeTransferFrom(address,address,uint256,bytes)": {
        "details": "Transfers the ownership of an NFT from one address to another address. This function can\r be changed to payable.\r",
        "params": {
          "_data": "Additional data with no specified format, sent in call to `_to`.\r",
          "_from": "The current owner of the NFT.\r",
          "_to": "The new owner.\r",
          "_tokenId": "The NFT to transfer.\r"
        }
      },
      "setApprovalForAll(address,bool)": {
        "details": "Enables or disables approval for a third party (\"operator\") to manage all of\r `msg.sender`'s assets. It also emits the ApprovalForAll event.\r",
        "params": {
          "_approved": "True if the operators is approved, false to revoke approval.\r",
          "_operator": "Address to add to the set of authorized operators.\r"
        }
      },
      "supportsInterface(bytes4)": {
        "details": "Function to check which interfaces are suported by this contract.\r",
        "params": {
          "_interfaceID": "Id of the interface.\r"
        },
        "return": "True if _interfaceID is supported, false otherwise.\r"
      },
      "symbol()": {
        "details": "Returns an abbreviated name for NFTokens.\r",
        "return": "Representing symbol.\r"
      },
      "tokenOfOwnerByIndex(address,uint256)": {
        "details": "returns the n-th NFT ID from a list of owner's tokens.\r",
        "params": {
          "_index": "Index number representing n-th token in owner's list of tokens.\r",
          "_owner": "Token owner's address.\r"
        },
        "return": "Token id.\r"
      },
      "tokenURI(uint256)": {
        "details": "A distinct URI (RFC 3986) for a given NFT.",
        "params": {
          "_tokenId": "Id for which we want uri."
        },
        "return": "URI of _tokenId."
      },
      "transferFrom(address,address,uint256)": {
        "details": "Throws unless `msg.sender` is the current owner, an authorized operator, or the approved\r address for this NFT. Throws if `_from` is not the current owner. Throws if `_to` is the zero\r address. Throws if `_tokenId` is not a valid NFT. This function can be changed to payable.\r",
        "params": {
          "_from": "The current owner of the NFT.\r",
          "_to": "The new owner.\r",
          "_tokenId": "The NFT to transfer.\r"
        }
      }
    }
  },
  "userdoc": {
    "methods": {
      "approve(address,uint256)": {
        "notice": "The zero address indicates there is no approved address. Throws unless `msg.sender` is\r the current NFT owner, or an authorized operator of the current owner.\r"
      },
      "getApproved(uint256)": {
        "notice": "Throws if `_tokenId` is not a valid NFT.\r"
      },
      "safeTransferFrom(address,address,uint256)": {
        "notice": "This works identically to the other function with an extra data parameter, except this\r function just sets data to \"\"\r"
      },
      "safeTransferFrom(address,address,uint256,bytes)": {
        "notice": "Throws unless `msg.sender` is the current owner, an authorized operator, or the\r approved address for this NFT. Throws if `_from` is not the current owner. Throws if `_to` is\r the zero address. Throws if `_tokenId` is not a valid NFT. When transfer is complete, this\r function checks if `_to` is a smart contract (code size > 0). If so, it calls\r `onERC721Received` on `_to` and throws if the return value is not\r `bytes4(keccak256(\"onERC721Received(address,uint256,bytes)\"))`.\r"
      },
      "setApprovalForAll(address,bool)": {
        "notice": "This works even if sender doesn't own any tokens at the time.\r"
      },
      "totalSupply()": {
        "notice": "/ Enumerable\r"
      },
      "transferFrom(address,address,uint256)": {
        "notice": "The caller is responsible to confirm that `_to` is capable of receiving NFTs or else\r they maybe be permanently lost.\r"
      }
    }
  }
}