{
  "address": "0xFd015222AADFCd9E6297951C84E659ECB28eA109",
  "abi": [
    {
      "constant": true,
      "inputs": [
        {
          "name": "_interfaceID",
          "type": "bytes4"
        }
      ],
      "name": "supportsInterface",
      "outputs": [
        {
          "name": "",
          "type": "bool"
        }
      ],
      "payable": false,
      "stateMutability": "view",
      "type": "function"
    },
    {
      "constant": true,
      "inputs": [],
      "name": "TOKEN_LIMIT",
      "outputs": [
        {
          "name": "",
          "type": "uint256"
        }
      ],
      "payable": false,
      "stateMutability": "view",
      "type": "function"
    },
    {
      "constant": true,
      "inputs": [],
      "name": "name",
      "outputs": [
        {
          "name": "_name",
          "type": "string"
        }
      ],
      "payable": false,
      "stateMutability": "view",
      "type": "function"
    },
    {
      "constant": true,
      "inputs": [
        {
          "name": "_tokenId",
          "type": "uint256"
        }
      ],
      "name": "getApproved",
      "outputs": [
        {
          "name": "",
          "type": "address"
        }
      ],
      "payable": false,
      "stateMutability": "view",
      "type": "function"
    },
    {
      "constant": false,
      "inputs": [
        {
          "name": "_approved",
          "type": "address"
        },
        {
          "name": "_tokenId",
          "type": "uint256"
        }
      ],
      "name": "approve",
      "outputs": [],
      "payable": false,
      "stateMutability": "nonpayable",
      "type": "function"
    },
    {
      "constant": true,
      "inputs": [],
      "name": "ARTIST_PRINTS",
      "outputs": [
        {
          "name": "",
          "type": "uint256"
        }
      ],
      "payable": false,
      "stateMutability": "view",
      "type": "function"
    },
    {
      "constant": true,
      "inputs": [],
      "name": "totalSupply",
      "outputs": [
        {
          "name": "",
          "type": "uint256"
        }
      ],
      "payable": false,
      "stateMutability": "view",
      "type": "function"
    },
    {
      "constant": false,
      "inputs": [
        {
          "name": "_from",
          "type": "address"
        },
        {
          "name": "_to",
          "type": "address"
        },
        {
          "name": "_tokenId",
          "type": "uint256"
        }
      ],
      "name": "transferFrom",
      "outputs": [],
      "payable": false,
      "stateMutability": "nonpayable",
      "type": "function"
    },
    {
      "constant": true,
      "inputs": [
        {
          "name": "_owner",
          "type": "address"
        },
        {
          "name": "_index",
          "type": "uint256"
        }
      ],
      "name": "tokenOfOwnerByIndex",
      "outputs": [
        {
          "name": "",
          "type": "uint256"
        }
      ],
      "payable": false,
      "stateMutability": "view",
      "type": "function"
    },
    {
      "constant": true,
      "inputs": [],
      "name": "BENEFICIARY",
      "outputs": [
        {
          "name": "",
          "type": "address"
        }
      ],
      "payable": false,
      "stateMutability": "view",
      "type": "function"
    },
    {
      "constant": false,
      "inputs": [
        {
          "name": "_tokenId",
          "type": "uint256"
        },
        {
          "name": "_defaultIndex",
          "type": "uint256"
        }
      ],
      "name": "setTokenIdDefaultIndex",
      "outputs": [],
      "payable": false,
      "stateMutability": "nonpayable",
      "type": "function"
    },
    {
      "constant": true,
      "inputs": [
        {
          "name": "_id",
          "type": "uint256"
        }
      ],
      "name": "symbolScheme",
      "outputs": [
        {
          "name": "",
          "type": "uint8"
        }
      ],
      "payable": false,
      "stateMutability": "view",
      "type": "function"
    },
    {
      "constant": false,
      "inputs": [
        {
          "name": "_from",
          "type": "address"
        },
        {
          "name": "_to",
          "type": "address"
        },
        {
          "name": "_tokenId",
          "type": "uint256"
        }
      ],
      "name": "safeTransferFrom",
      "outputs": [],
      "payable": false,
      "stateMutability": "nonpayable",
      "type": "function"
    },
    {
      "constant": true,
      "inputs": [
        {
          "name": "index",
          "type": "uint256"
        }
      ],
      "name": "tokenByIndex",
      "outputs": [
        {
          "name": "",
          "type": "uint256"
        }
      ],
      "payable": false,
      "stateMutability": "view",
      "type": "function"
    },
    {
      "constant": true,
      "inputs": [
        {
          "name": "_id",
          "type": "uint256"
        }
      ],
      "name": "creator",
      "outputs": [
        {
          "name": "",
          "type": "address"
        }
      ],
      "payable": false,
      "stateMutability": "view",
      "type": "function"
    },
    {
      "constant": true,
      "inputs": [
        {
          "name": "",
          "type": "uint256"
        },
        {
          "name": "",
          "type": "uint256"
        }
      ],
      "name": "blockNumberSaved",
      "outputs": [
        {
          "name": "",
          "type": "uint256"
        }
      ],
      "payable": false,
      "stateMutability": "view",
      "type": "function"
    },
    {
      "constant": true,
      "inputs": [
        {
          "name": "_tokenId",
          "type": "uint256"
        }
      ],
      "name": "ownerOf",
      "outputs": [
        {
          "name": "_owner",
          "type": "address"
        }
      ],
      "payable": false,
      "stateMutability": "view",
      "type": "function"
    },
    {
      "constant": true,
      "inputs": [
        {
          "name": "id",
          "type": "uint256"
        }
      ],
      "name": "getSymbol",
      "outputs": [
        {
          "name": "",
          "type": "bytes5"
        }
      ],
      "payable": false,
      "stateMutability": "view",
      "type": "function"
    },
    {
      "constant": true,
      "inputs": [
        {
          "name": "",
          "type": "uint256"
        }
      ],
      "name": "tokenIdDefaultIndex",
      "outputs": [
        {
          "name": "",
          "type": "uint256"
        }
      ],
      "payable": false,
      "stateMutability": "view",
      "type": "function"
    },
    {
      "constant": true,
      "inputs": [
        {
          "name": "_owner",
          "type": "address"
        }
      ],
      "name": "balanceOf",
      "outputs": [
        {
          "name": "",
          "type": "uint256"
        }
      ],
      "payable": false,
      "stateMutability": "view",
      "type": "function"
    },
    {
      "constant": true,
      "inputs": [
        {
          "name": "_tokenId",
          "type": "uint256"
        }
      ],
      "name": "viewCurrentTokenURI",
      "outputs": [
        {
          "name": "",
          "type": "string"
        }
      ],
      "payable": false,
      "stateMutability": "view",
      "type": "function"
    },
    {
      "constant": true,
      "inputs": [],
      "name": "PRICE",
      "outputs": [
        {
          "name": "",
          "type": "uint256"
        }
      ],
      "payable": false,
      "stateMutability": "view",
      "type": "function"
    },
    {
      "constant": true,
      "inputs": [],
      "name": "symbol",
      "outputs": [
        {
          "name": "_symbol",
          "type": "string"
        }
      ],
      "payable": false,
      "stateMutability": "view",
      "type": "function"
    },
    {
      "constant": false,
      "inputs": [
        {
          "name": "_operator",
          "type": "address"
        },
        {
          "name": "_approved",
          "type": "bool"
        }
      ],
      "name": "setApprovalForAll",
      "outputs": [],
      "payable": false,
      "stateMutability": "nonpayable",
      "type": "function"
    },
    {
      "constant": false,
      "inputs": [
        {
          "name": "_tokenId",
          "type": "uint256"
        }
      ],
      "name": "saveTokenURI",
      "outputs": [],
      "payable": false,
      "stateMutability": "nonpayable",
      "type": "function"
    },
    {
      "constant": false,
      "inputs": [
        {
          "name": "_from",
          "type": "address"
        },
        {
          "name": "_to",
          "type": "address"
        },
        {
          "name": "_tokenId",
          "type": "uint256"
        },
        {
          "name": "_data",
          "type": "bytes"
        }
      ],
      "name": "safeTransferFrom",
      "outputs": [],
      "payable": false,
      "stateMutability": "nonpayable",
      "type": "function"
    },
    {
      "constant": true,
      "inputs": [
        {
          "name": "_tokenId",
          "type": "uint256"
        }
      ],
      "name": "tokenURI",
      "outputs": [
        {
          "name": "",
          "type": "string"
        }
      ],
      "payable": false,
      "stateMutability": "view",
      "type": "function"
    },
    {
      "constant": true,
      "inputs": [
        {
          "name": "_tokenId",
          "type": "uint256"
        },
        {
          "name": "_index",
          "type": "uint256"
        }
      ],
      "name": "viewSpecificTokenURI",
      "outputs": [
        {
          "name": "",
          "type": "string"
        }
      ],
      "payable": false,
      "stateMutability": "view",
      "type": "function"
    },
    {
      "constant": false,
      "inputs": [
        {
          "name": "seed",
          "type": "uint256"
        }
      ],
      "name": "createGlyph",
      "outputs": [
        {
          "name": "",
          "type": "uint256"
        }
      ],
      "payable": true,
      "stateMutability": "payable",
      "type": "function"
    },
    {
      "constant": true,
      "inputs": [
        {
          "name": "_owner",
          "type": "address"
        },
        {
          "name": "_operator",
          "type": "address"
        }
      ],
      "name": "isApprovedForAll",
      "outputs": [
        {
          "name": "",
          "type": "bool"
        }
      ],
      "payable": false,
      "stateMutability": "view",
      "type": "function"
    },
    {
      "anonymous": false,
      "inputs": [
        {
          "indexed": true,
          "name": "index",
          "type": "uint256"
        },
        {
          "indexed": true,
          "name": "a",
          "type": "address"
        },
        {
          "indexed": false,
          "name": "value",
          "type": "uint256"
        }
      ],
      "name": "Generated",
      "type": "event"
    },
    {
      "anonymous": false,
      "inputs": [
        {
          "indexed": true,
          "name": "_from",
          "type": "address"
        },
        {
          "indexed": true,
          "name": "_to",
          "type": "address"
        },
        {
          "indexed": true,
          "name": "_tokenId",
          "type": "uint256"
        }
      ],
      "name": "Transfer",
      "type": "event"
    },
    {
      "anonymous": false,
      "inputs": [
        {
          "indexed": true,
          "name": "_owner",
          "type": "address"
        },
        {
          "indexed": true,
          "name": "_approved",
          "type": "address"
        },
        {
          "indexed": true,
          "name": "_tokenId",
          "type": "uint256"
        }
      ],
      "name": "Approval",
      "type": "event"
    },
    {
      "anonymous": false,
      "inputs": [
        {
          "indexed": true,
          "name": "_owner",
          "type": "address"
        },
        {
          "indexed": true,
          "name": "_operator",
          "type": "address"
        },
        {
          "indexed": false,
          "name": "_approved",
          "type": "bool"
        }
      ],
      "name": "ApprovalForAll",
      "type": "event"
    }
  ],
  "transactionHash": "0x64775ff71af73fa8edf267cdefba6c9435ac04a9d46084e4d09838de043664aa",
  "args": [],
  "solcInputHash": "bcac7794550a06587f6aaf6fea4d802f",
  "bytecode": "0x608060405260006006556040805190810160405280600a81526020017f5965726f676c79706873000000000000000000000000000000000000000000008152506007908051906020019062000056929190620002b1565b506040805190810160405280600381526020017fe1b5b9000000000000000000000000000000000000000000000000000000000081525060089080519060200190620000a4929190620002b1565b506040805190810160405280601e81526020017f646174613a746578742f706c61696e3b636861727365743d7574662d382c0000815250600f9080519060200190620000f292919062000338565b506001600560006301ffc9a77c0100000000000000000000000000000000000000000000000000000000027bffffffffffffffffffffffffffffffffffffffffffffffffffffffff1916815260200190815260200160002060006101000a81548160ff0219169083151502179055506001600560006380ac58cd7c0100000000000000000000000000000000000000000000000000000000027bffffffffffffffffffffffffffffffffffffffffffffffffffffffff1916815260200190815260200160002060006101000a81548160ff02191690831515021790555060016005600063780e9d637c0100000000000000000000000000000000000000000000000000000000027bffffffffffffffffffffffffffffffffffffffffffffffffffffffff1916815260200190815260200160002060006101000a81548160ff021916908315150217905550600160056000635b5e139f7c0100000000000000000000000000000000000000000000000000000000027bffffffffffffffffffffffffffffffffffffffffffffffffffffffff1916815260200190815260200160002060006101000a81548160ff021916908315150217905550620003e7565b828054600181600116156101000203166002900490600052602060002090601f016020900481019282601f10620002f457805160ff191683800117855562000325565b8280016001018555821562000325579182015b828111156200032457825182559160200191906001019062000307565b5b509050620003349190620003bf565b5090565b828054600181600116156101000203166002900490600052602060002090601f016020900481019282601f106200037b57805160ff1916838001178555620003ac565b82800160010185558215620003ac579182015b82811115620003ab5782518255916020019190600101906200038e565b5b509050620003bb9190620003bf565b5090565b620003e491905b80821115620003e0576000816000905550600101620003c6565b5090565b90565b61357280620003f76000396000f300608060405260043610610180576000357c0100000000000000000000000000000000000000000000000000000000900463ffffffff16806301ffc9a714610185578063031bd4c4146101e957806306fdde0314610214578063081812fc146102a4578063095ea7b314610311578063180f0afd1461035e57806318160ddd1461038957806323b872dd146103b45780632f745c59146104215780632f99c6cc14610482578063309627af146104d9578063397490641461051057806342842e0e146105575780634f6ccce7146105c4578063510b515814610605578063613496ac146106725780636352211e146106bd5780636418413c1461072a57806367242bb1146107a757806370a08231146107e8578063750203951461083f5780638d859f3e146108e557806395d89b4114610910578063a22cb465146109a0578063b4ad6962146109ef578063b88d4fde14610a1c578063c87b56dd14610aa1578063d5d922d814610b47578063dba5a7f514610bf7578063e985e9c514610c2b575b600080fd5b34801561019157600080fd5b506101cf60048036038101908080357bffffffffffffffffffffffffffffffffffffffffffffffffffffffff19169060200190929190505050610ca6565b604051808215151515815260200191505060405180910390f35b3480156101f557600080fd5b506101fe610d0e565b6040518082815260200191505060405180910390f35b34801561022057600080fd5b50610229610d13565b6040518080602001828103825283818151815260200191508051906020019080838360005b8381101561026957808201518184015260208101905061024e565b50505050905090810190601f1680156102965780820380516001836020036101000a031916815260200191505b509250505060405180910390f35b3480156102b057600080fd5b506102cf60048036038101908080359060200190929190505050610db5565b604051808273ffffffffffffffffffffffffffffffffffffffff1673ffffffffffffffffffffffffffffffffffffffff16815260200191505060405180910390f35b34801561031d57600080fd5b5061035c600480360381019080803573ffffffffffffffffffffffffffffffffffffffff16906020019092919080359060200190929190505050610e63565b005b34801561036a57600080fd5b506103736110fe565b6040518082815260200191505060405180910390f35b34801561039557600080fd5b5061039e611103565b6040518082815260200191505060405180910390f35b3480156103c057600080fd5b5061041f600480360381019080803573ffffffffffffffffffffffffffffffffffffffff169060200190929190803573ffffffffffffffffffffffffffffffffffffffff1690602001909291908035906020019092919050505061110d565b005b34801561042d57600080fd5b5061046c600480360381019080803573ffffffffffffffffffffffffffffffffffffffff169060200190929190803590602001909291905050506113aa565b6040518082815260200191505060405180910390f35b34801561048e57600080fd5b5061049761145b565b604051808273ffffffffffffffffffffffffffffffffffffffff1673ffffffffffffffffffffffffffffffffffffffff16815260200191505060405180910390f35b3480156104e557600080fd5b5061050e6004803603810190808035906020019092919080359060200190929190505050611473565b005b34801561051c57600080fd5b5061053b600480360381019080803590602001909291905050506115d6565b604051808260ff1660ff16815260200191505060405180910390f35b34801561056357600080fd5b506105c2600480360381019080803573ffffffffffffffffffffffffffffffffffffffff169060200190929190803573ffffffffffffffffffffffffffffffffffffffff16906020019092919080359060200190929190505050611600565b005b3480156105d057600080fd5b506105ef60048036038101908080359060200190929190505050611621565b6040518082815260200191505060405180910390f35b34801561061157600080fd5b506106306004803603810190808035906020019092919050505061163b565b604051808273ffffffffffffffffffffffffffffffffffffffff1673ffffffffffffffffffffffffffffffffffffffff16815260200191505060405180910390f35b34801561067e57600080fd5b506106a76004803603810190808035906020019092919080359060200190929190505050611678565b6040518082815260200191505060405180910390f35b3480156106c957600080fd5b506106e8600480360381019080803590602001909291905050506116a8565b604051808273ffffffffffffffffffffffffffffffffffffffff1673ffffffffffffffffffffffffffffffffffffffff16815260200191505060405180910390f35b34801561073657600080fd5b5061075560048036038101908080359060200190929190505050611721565b60405180827affffffffffffffffffffffffffffffffffffffffffffffffffffff19167affffffffffffffffffffffffffffffffffffffffffffffffffffff1916815260200191505060405180910390f35b3480156107b357600080fd5b506107d260048036038101908080359060200190929190505050611982565b6040518082815260200191505060405180910390f35b3480156107f457600080fd5b50610829600480360381019080803573ffffffffffffffffffffffffffffffffffffffff16906020019092919050505061199a565b6040518082815260200191505060405180910390f35b34801561084b57600080fd5b5061086a600480360381019080803590602001909291905050506119e7565b6040518080602001828103825283818151815260200191508051906020019080838360005b838110156108aa57808201518184015260208101905061088f565b50505050905090810190601f1680156108d75780820380516001836020036101000a031916815260200191505b509250505060405180910390f35b3480156108f157600080fd5b506108fa611a85565b6040518082815260200191505060405180910390f35b34801561091c57600080fd5b50610925611a91565b6040518080602001828103825283818151815260200191508051906020019080838360005b8381101561096557808201518184015260208101905061094a565b50505050905090810190601f1680156109925780820380516001836020036101000a031916815260200191505b509250505060405180910390f35b3480156109ac57600080fd5b506109ed600480360381019080803573ffffffffffffffffffffffffffffffffffffffff169060200190929190803515159060200190929190505050611b33565b005b3480156109fb57600080fd5b50610a1a60048036038101908080359060200190929190505050611c33565b005b348015610a2857600080fd5b50610a9f600480360381019080803573ffffffffffffffffffffffffffffffffffffffff169060200190929190803573ffffffffffffffffffffffffffffffffffffffff16906020019092919080359060200190929190803590602001908201803590602001919091929391929390505050611dba565b005b348015610aad57600080fd5b50610acc60048036038101908080359060200190929190505050611dff565b6040518080602001828103825283818151815260200191508051906020019080838360005b83811015610b0c578082015181840152602081019050610af1565b50505050905090810190601f168015610b395780820380516001836020036101000a031916815260200191505b509250505060405180910390f35b348015610b5357600080fd5b50610b7c6004803603810190808035906020019092919080359060200190929190505050611ee5565b6040518080602001828103825283818151815260200191508051906020019080838360005b83811015610bbc578082015181840152602081019050610ba1565b50505050905090810190601f168015610be95780820380516001836020036101000a031916815260200191505b509250505060405180910390f35b610c1560048036038101908080359060200190929190505050611f3d565b6040518082815260200191505060405180910390f35b348015610c3757600080fd5b50610c8c600480360381019080803573ffffffffffffffffffffffffffffffffffffffff169060200190929190803573ffffffffffffffffffffffffffffffffffffffff169060200190929190505050611f50565b604051808215151515815260200191505060405180910390f35b600060056000837bffffffffffffffffffffffffffffffffffffffffffffffffffffffff19167bffffffffffffffffffffffffffffffffffffffffffffffffffffffff1916815260200190815260200160002060009054906101000a900460ff169050919050565b600881565b606060078054600181600116156101000203166002900480601f016020809104026020016040519081016040528092919081815260200182805460018160011615610100020316600290048015610dab5780601f10610d8057610100808354040283529160200191610dab565b820191906000526020600020905b815481529060010190602001808311610d8e57829003601f168201915b5050505050905090565b600081600073ffffffffffffffffffffffffffffffffffffffff166002600083815260200190815260200160002060009054906101000a900473ffffffffffffffffffffffffffffffffffffffff1673ffffffffffffffffffffffffffffffffffffffff1614151515610e2757600080fd5b6001600084815260200190815260200160002060009054906101000a900473ffffffffffffffffffffffffffffffffffffffff16915050919050565b60008160006002600083815260200190815260200160002060009054906101000a900473ffffffffffffffffffffffffffffffffffffffff1690503373ffffffffffffffffffffffffffffffffffffffff168173ffffffffffffffffffffffffffffffffffffffff161480610f5d57506000808273ffffffffffffffffffffffffffffffffffffffff1673ffffffffffffffffffffffffffffffffffffffff16815260200190815260200160002060003373ffffffffffffffffffffffffffffffffffffffff1673ffffffffffffffffffffffffffffffffffffffff16815260200190815260200160002060009054906101000a900460ff165b1515610f6857600080fd5b83600073ffffffffffffffffffffffffffffffffffffffff166002600083815260200190815260200160002060009054906101000a900473ffffffffffffffffffffffffffffffffffffffff1673ffffffffffffffffffffffffffffffffffffffff1614151515610fd857600080fd5b6002600086815260200190815260200160002060009054906101000a900473ffffffffffffffffffffffffffffffffffffffff1693508373ffffffffffffffffffffffffffffffffffffffff168673ffffffffffffffffffffffffffffffffffffffff161415151561104957600080fd5b856001600087815260200190815260200160002060006101000a81548173ffffffffffffffffffffffffffffffffffffffff021916908373ffffffffffffffffffffffffffffffffffffffff160217905550848673ffffffffffffffffffffffffffffffffffffffff168573ffffffffffffffffffffffffffffffffffffffff167f8c5be1e5ebec7d5bd14f71427d1e84f3dd0314c0f7b2291e5b200ac8c7c3b92560405160405180910390a4505050505050565b600281565b6000600654905090565b60008160006002600083815260200190815260200160002060009054906101000a900473ffffffffffffffffffffffffffffffffffffffff1690503373ffffffffffffffffffffffffffffffffffffffff168173ffffffffffffffffffffffffffffffffffffffff1614806111e057503373ffffffffffffffffffffffffffffffffffffffff166001600084815260200190815260200160002060009054906101000a900473ffffffffffffffffffffffffffffffffffffffff1673ffffffffffffffffffffffffffffffffffffffff16145b8061127057506000808273ffffffffffffffffffffffffffffffffffffffff1673ffffffffffffffffffffffffffffffffffffffff16815260200190815260200160002060003373ffffffffffffffffffffffffffffffffffffffff1673ffffffffffffffffffffffffffffffffffffffff16815260200190815260200160002060009054906101000a900460ff165b151561127b57600080fd5b83600073ffffffffffffffffffffffffffffffffffffffff166002600083815260200190815260200160002060009054906101000a900473ffffffffffffffffffffffffffffffffffffffff1673ffffffffffffffffffffffffffffffffffffffff16141515156112eb57600080fd5b6002600086815260200190815260200160002060009054906101000a900473ffffffffffffffffffffffffffffffffffffffff1693508673ffffffffffffffffffffffffffffffffffffffff168473ffffffffffffffffffffffffffffffffffffffff1614151561135b57600080fd5b600073ffffffffffffffffffffffffffffffffffffffff168673ffffffffffffffffffffffffffffffffffffffff161415151561139757600080fd5b6113a18686611fe3565b50505050505050565b6000600460008473ffffffffffffffffffffffffffffffffffffffff1673ffffffffffffffffffffffffffffffffffffffff16815260200190815260200160002080549050821015156113fc57600080fd5b600460008473ffffffffffffffffffffffffffffffffffffffff1673ffffffffffffffffffffffffffffffffffffffff1681526020019081526020016000208281548110151561144857fe5b9060005260206000200154905092915050565b73945a8480d61d85ed755013169dc165574d751d1a81565b81600073ffffffffffffffffffffffffffffffffffffffff166002600083815260200190815260200160002060009054906101000a900473ffffffffffffffffffffffffffffffffffffffff1673ffffffffffffffffffffffffffffffffffffffff16141515156114e357600080fd5b3373ffffffffffffffffffffffffffffffffffffffff166009600085815260200190815260200160002060009054906101000a900473ffffffffffffffffffffffffffffffffffffffff1673ffffffffffffffffffffffffffffffffffffffff161415156115b9576040517f08c379a00000000000000000000000000000000000000000000000000000000081526004018080602001828103825260138152602001807f4f6e6c79206f776e65722063616e2063616c6c0000000000000000000000000081525060200191505060405180910390fd5b81600d600085815260200190815260200160002081905550505050565b6000600a600083815260200190815260200160002060009054906101000a900460ff169050919050565b61161c8383836020604051908101604052806000815250612098565b505050565b60006006548210151561163357600080fd5b819050919050565b60006009600083815260200190815260200160002060009054906101000a900473ffffffffffffffffffffffffffffffffffffffff169050919050565b600e6020528160005260406000208181548110151561169357fe5b90600052602060002001600091509150505481565b60006002600083815260200190815260200160002060009054906101000a900473ffffffffffffffffffffffffffffffffffffffff169050600073ffffffffffffffffffffffffffffffffffffffff168173ffffffffffffffffffffffffffffffffffffffff161415151561171c57600080fd5b919050565b6000806000600a600085815260200190815260200160002060009054906101000a900460ff16905060008160ff16141561175a57600080fd5b60018160ff16141561179157642e582f5c2e7b01000000000000000000000000000000000000000000000000000000029150611978565b60028160ff1614156117c857642e2b2d7c2e7b01000000000000000000000000000000000000000000000000000000029150611977565b60038160ff1614156117ff57642e2f5c2e2e7b01000000000000000000000000000000000000000000000000000000029150611976565b60048160ff16141561183657642e5c7c2d2f7b01000000000000000000000000000000000000000000000000000000029150611975565b60058160ff16141561186d57642e4f7c2d2e7b01000000000000000000000000000000000000000000000000000000029150611974565b60068160ff1614156118a457642e5c5c2e2e7b01000000000000000000000000000000000000000000000000000000029150611973565b60078160ff1614156118db57642e237c2d2b7b01000000000000000000000000000000000000000000000000000000029150611972565b60088160ff16141561191257642e4f4f2e2e7b01000000000000000000000000000000000000000000000000000000029150611971565b60098160ff16141561194957642e232e2e2e7b01000000000000000000000000000000000000000000000000000000029150611970565b642e234f2e2e7b010000000000000000000000000000000000000000000000000000000291505b5b5b5b5b5b5b5b5b8192505050919050565b600d6020528060005260406000206000915090505481565b60008073ffffffffffffffffffffffffffffffffffffffff168273ffffffffffffffffffffffffffffffffffffffff16141515156119d757600080fd5b6119e082612537565b9050919050565b6060600082600073ffffffffffffffffffffffffffffffffffffffff166002600083815260200190815260200160002060009054906101000a900473ffffffffffffffffffffffffffffffffffffffff1673ffffffffffffffffffffffffffffffffffffffff1614151515611a5b57600080fd5b600b6000858152602001908152602001600020549150611a7c848343612583565b92505050919050565b67011c37937e08000081565b606060088054600181600116156101000203166002900480601f016020809104026020016040519081016040528092919081815260200182805460018160011615610100020316600290048015611b295780601f10611afe57610100808354040283529160200191611b29565b820191906000526020600020905b815481529060010190602001808311611b0c57829003601f168201915b5050505050905090565b806000803373ffffffffffffffffffffffffffffffffffffffff1673ffffffffffffffffffffffffffffffffffffffff16815260200190815260200160002060008473ffffffffffffffffffffffffffffffffffffffff1673ffffffffffffffffffffffffffffffffffffffff16815260200190815260200160002060006101000a81548160ff0219169083151502179055508173ffffffffffffffffffffffffffffffffffffffff163373ffffffffffffffffffffffffffffffffffffffff167f17307eab39ab6107e8899845ad3d59bd9653f200f220920489ca2b5937696c3183604051808215151515815260200191505060405180910390a35050565b80600073ffffffffffffffffffffffffffffffffffffffff166002600083815260200190815260200160002060009054906101000a900473ffffffffffffffffffffffffffffffffffffffff1673ffffffffffffffffffffffffffffffffffffffff1614151515611ca357600080fd5b3373ffffffffffffffffffffffffffffffffffffffff166009600084815260200190815260200160002060009054906101000a900473ffffffffffffffffffffffffffffffffffffffff1673ffffffffffffffffffffffffffffffffffffffff16141515611d79576040517f08c379a00000000000000000000000000000000000000000000000000000000081526004018080602001828103825260138152602001807f4f6e6c79206f776e65722063616e2063616c6c0000000000000000000000000081525060200191505060405180910390fd5b600e60008381526020019081526020016000204390806001815401808255809150509060018203906000526020600020016000909192909190915055505050565b611df885858585858080601f016020809104026020016040519081016040528093929190818152602001838380828437820191505050505050612098565b5050505050565b6060600080600084600073ffffffffffffffffffffffffffffffffffffffff166002600083815260200190815260200160002060009054906101000a900473ffffffffffffffffffffffffffffffffffffffff1673ffffffffffffffffffffffffffffffffffffffff1614151515611e7657600080fd5b600d6000878152602001908152602001600020549350600e600087815260200190815260200160002084815481101515611eac57fe5b90600052602060002001549250600b6000878152602001908152602001600020549150611eda868385612583565b945050505050919050565b60606000600b6000858152602001908152602001600020549050611f348482600e600088815260200190815260200160002086815481101515611f2457fe5b9060005260206000200154612583565b91505092915050565b6000611f493383612add565b9050919050565b60008060008473ffffffffffffffffffffffffffffffffffffffff1673ffffffffffffffffffffffffffffffffffffffff16815260200190815260200160002060008373ffffffffffffffffffffffffffffffffffffffff1673ffffffffffffffffffffffffffffffffffffffff16815260200190815260200160002060009054906101000a900460ff16905092915050565b60006002600083815260200190815260200160002060009054906101000a900473ffffffffffffffffffffffffffffffffffffffff16905061202482612f92565b61202e8183613035565b612038838361326b565b818373ffffffffffffffffffffffffffffffffffffffff168273ffffffffffffffffffffffffffffffffffffffff167fddf252ad1be2c89b69c2b068fc378daa952ba7f163c4a11628f55a4df523b3ef60405160405180910390a4505050565b6000808360006002600083815260200190815260200160002060009054906101000a900473ffffffffffffffffffffffffffffffffffffffff1690503373ffffffffffffffffffffffffffffffffffffffff168173ffffffffffffffffffffffffffffffffffffffff16148061216c57503373ffffffffffffffffffffffffffffffffffffffff166001600084815260200190815260200160002060009054906101000a900473ffffffffffffffffffffffffffffffffffffffff1673ffffffffffffffffffffffffffffffffffffffff16145b806121fc57506000808273ffffffffffffffffffffffffffffffffffffffff1673ffffffffffffffffffffffffffffffffffffffff16815260200190815260200160002060003373ffffffffffffffffffffffffffffffffffffffff1673ffffffffffffffffffffffffffffffffffffffff16815260200190815260200160002060009054906101000a900460ff165b151561220757600080fd5b85600073ffffffffffffffffffffffffffffffffffffffff166002600083815260200190815260200160002060009054906101000a900473ffffffffffffffffffffffffffffffffffffffff1673ffffffffffffffffffffffffffffffffffffffff161415151561227757600080fd5b6002600088815260200190815260200160002060009054906101000a900473ffffffffffffffffffffffffffffffffffffffff1694508873ffffffffffffffffffffffffffffffffffffffff168573ffffffffffffffffffffffffffffffffffffffff161415156122e757600080fd5b600073ffffffffffffffffffffffffffffffffffffffff168873ffffffffffffffffffffffffffffffffffffffff161415151561232357600080fd5b61232d8888611fe3565b612336886133b6565b1561252c578773ffffffffffffffffffffffffffffffffffffffff1663150b7a02338b8a8a6040518563ffffffff167c0100000000000000000000000000000000000000000000000000000000028152600401808573ffffffffffffffffffffffffffffffffffffffff1673ffffffffffffffffffffffffffffffffffffffff1681526020018473ffffffffffffffffffffffffffffffffffffffff1673ffffffffffffffffffffffffffffffffffffffff16815260200183815260200180602001828103825283818151815260200191508051906020019080838360005b83811015612430578082015181840152602081019050612415565b50505050905090810190601f16801561245d5780820380516001836020036101000a031916815260200191505b5095505050505050602060405180830381600087803b15801561247f57600080fd5b505af1158015612493573d6000803e3d6000fd5b505050506040513d60208110156124a957600080fd5b8101908080519060200190929190505050935063150b7a027c0100000000000000000000000000000000000000000000000000000000027bffffffffffffffffffffffffffffffffffffffffffffffffffffffff1916847bffffffffffffffffffffffffffffffffffffffffffffffffffffffff191614151561252b57600080fd5b5b505050505050505050565b6000600460008373ffffffffffffffffffffffffffffffffffffffff1673ffffffffffffffffffffffffffffffffffffffff168152602001908152602001600020805490509050919050565b60606000606060006125936134b5565b600080600080600060608c8c60405160200180838152602001828152602001925050506040516020818303038152906040526040518082805190602001908083835b6020831015156125fa57805182526020820191506020810190506020830392506125d5565b6001836020036101000a03801982511681845116808217855250505050505090500191505060405180910390206001900473ffffffffffffffffffffffffffffffffffffffff169950601e6003604001604002016040519080825280601f01601f1916602001820160405280156126805781602001602082028038833980820191505090505b509850600097505b601e88101561274157600f8881546001816001161561010002031660029004811015156126b157fe5b8154600116156126d05790600052602060002090602091828204019190065b9054901a7f010000000000000000000000000000000000000000000000000000000000000002898981518110151561270457fe5b9060200101907effffffffffffffffffffffffffffffffffffffffffffffffffffffffffffff1916908160001a9053508780600101985050612688565b60009550600094506000935060008760000181815250506005600b8b81151561276657fe5b060187602001818152505061277a8e611721565b87604001907affffffffffffffffffffffffffffffffffffffffffffffffffffff191690817affffffffffffffffffffffffffffffffffffffffffffffffffffff191681525050600092505b6040831215612ac6576001600260408115156127de57fe5b058403600202019450600160038b8115156127f557fe5b06141561280757846000039450612829565b600260038b81151561281557fe5b06141561282857612825856133c9565b94505b5b8985029450600091505b604082121561297b5760016002604081151561284b57fe5b058303600202019550600160028b81151561286257fe5b06141561287557612872866133c9565b95505b8986029550866020015164010000000086880281151561289157fe5b0581151561289b57fe5b069350600584101561290d578660400151846005811015156128b957fe5b1a7f0100000000000000000000000000000000000000000000000000000000000000027f01000000000000000000000000000000000000000000000000000000000000009004876000018181525050612919565b602e8760000181815250505b60f887600001519060020a02600102898981518110151561293657fe5b9060200101907effffffffffffffffffffffffffffffffffffffffffffffffffffffffffffff1916908160001a90535087806001019850508180600101925050612833565b60257f01000000000000000000000000000000000000000000000000000000000000000289898151811015156129ad57fe5b9060200101907effffffffffffffffffffffffffffffffffffffffffffffffffffffffffffff1916908160001a905350878060010198505060307f0100000000000000000000000000000000000000000000000000000000000000028989815181101515612a1757fe5b9060200101907effffffffffffffffffffffffffffffffffffffffffffffffffffffffffffff1916908160001a905350878060010198505060417f0100000000000000000000000000000000000000000000000000000000000000028989815181101515612a8157fe5b9060200101907effffffffffffffffffffffffffffffffffffffffffffffffffffffffffffff1916908160001a905350878060010198505082806001019350506127c6565b889050809a50505050505050505050509392505050565b60008060008073ffffffffffffffffffffffffffffffffffffffff168573ffffffffffffffffffffffffffffffffffffffff1614151515612b1d57600080fd5b6008600654101515612b97576040517f08c379a00000000000000000000000000000000000000000000000000000000081526004018080602001828103825260108152602001807f416c6c20746f6b656e204d696e7465640000000000000000000000000000000081525060200191505060405180910390fd5b6002600654101515612c245767011c37937e0800003410151515612c23576040517f08c379a00000000000000000000000000000000000000000000000000000000081526004018080602001828103825260108152602001807f506179656d656e7420746f6f206c6f770000000000000000000000000000000081525060200191505060405180910390fd5b5b6000600c600086815260200190815260200160002054141515612caf576040517f08c379a00000000000000000000000000000000000000000000000000000000081526004018080602001828103825260148152602001807f546f6b656e20616c7265616479206d696e74656400000000000000000000000081525060200191505060405180910390fd5b6001600654019150846009600084815260200190815260200160002060006101000a81548173ffffffffffffffffffffffffffffffffffffffff021916908373ffffffffffffffffffffffffffffffffffffffff16021790555083600b60008481526020019081526020016000208190555081600c60008681526020019081526020016000208190555083604051602001808281526020019150506040516020818303038152906040526040518082805190602001908083835b602083101515612d8e5780518252602082019150602081019050602083039250612d69565b6001836020036101000a03801982511681845116808217855250505050505090500191505060405180910390206001900473ffffffffffffffffffffffffffffffffffffffff169050612de0816133e8565b600a600084815260200190815260200160002060006101000a81548160ff021916908360ff160217905550600e60008381526020019081526020016000204390806001815401808255809150509060018203906000526020600020016000909192909190915055506000600d6000848152602001908152602001600020819055508473ffffffffffffffffffffffffffffffffffffffff16827f85dce40a3d477c839b8a58d43ecae72c5d41bfdfcf52fc3923c5aaba3e6483f1436040518082815260200191505060405180910390a3600160065401600681905550612ec6858361326b565b6000341115612f2b5773945a8480d61d85ed755013169dc165574d751d1a73ffffffffffffffffffffffffffffffffffffffff166108fc349081150290604051600060405180830381858888f19350505050158015612f29573d6000803e3d6000fd5b505b818573ffffffffffffffffffffffffffffffffffffffff16600073ffffffffffffffffffffffffffffffffffffffff167fddf252ad1be2c89b69c2b068fc378daa952ba7f163c4a11628f55a4df523b3ef60405160405180910390a4439250505092915050565b600073ffffffffffffffffffffffffffffffffffffffff166001600083815260200190815260200160002060009054906101000a900473ffffffffffffffffffffffffffffffffffffffff1673ffffffffffffffffffffffffffffffffffffffff16141515613032576001600082815260200190815260200160002060006101000a81549073ffffffffffffffffffffffffffffffffffffffff02191690555b50565b60008060008473ffffffffffffffffffffffffffffffffffffffff166002600086815260200190815260200160002060009054906101000a900473ffffffffffffffffffffffffffffffffffffffff1673ffffffffffffffffffffffffffffffffffffffff161415156130a757600080fd5b6002600085815260200190815260200160002060006101000a81549073ffffffffffffffffffffffffffffffffffffffff0219169055600360008581526020019081526020016000205492506001600460008773ffffffffffffffffffffffffffffffffffffffff1673ffffffffffffffffffffffffffffffffffffffff16815260200190815260200160002080549050039150828214151561321157600460008673ffffffffffffffffffffffffffffffffffffffff1673ffffffffffffffffffffffffffffffffffffffff1681526020019081526020016000208281548110151561319057fe5b9060005260206000200154905080600460008773ffffffffffffffffffffffffffffffffffffffff1673ffffffffffffffffffffffffffffffffffffffff168152602001908152602001600020848154811015156131ea57fe5b90600052602060002001819055508260036000838152602001908152602001600020819055505b600460008673ffffffffffffffffffffffffffffffffffffffff1673ffffffffffffffffffffffffffffffffffffffff16815260200190815260200160002080548091906001900361326391906134f5565b505050505050565b60008073ffffffffffffffffffffffffffffffffffffffff166002600084815260200190815260200160002060009054906101000a900473ffffffffffffffffffffffffffffffffffffffff1673ffffffffffffffffffffffffffffffffffffffff161415156132da57600080fd5b826002600084815260200190815260200160002060006101000a81548173ffffffffffffffffffffffffffffffffffffffff021916908373ffffffffffffffffffffffffffffffffffffffff160217905550600460008473ffffffffffffffffffffffffffffffffffffffff1673ffffffffffffffffffffffffffffffffffffffff16815260200190815260200160002082908060018154018082558091505090600182039060005260206000200160009091929091909150559050600181036003600084815260200190815260200160002081905550505050565b600080823b905060008111915050919050565b600080821215156133dc578190506133e3565b8160000390505b919050565b60008060006053848115156133f957fe5b069150601482101561340e57600190506134ab565b602382101561342057600290506134aa565b603082101561343257600390506134a9565b603b82101561344457600490506134a8565b604482101561345657600590506134a7565b604982101561346857600690506134a6565b604d82101561347a57600790506134a5565b605082101561348c57600890506134a4565b605282101561349e57600990506134a3565b600a90505b5b5b5b5b5b5b5b5b8092505050919050565b606060405190810160405280600081526020016000815260200160007affffffffffffffffffffffffffffffffffffffffffffffffffffff191681525090565b81548183558181111561351c5781836000526020600020918201910161351b9190613521565b5b505050565b61354391905b8082111561353f576000816000905550600101613527565b5090565b905600a165627a7a72305820bd062feccb9fbe82183ae229696f54ff54d028f0169f72423f10a3974cc16ce30029",
  "devdoc": {
    "methods": {
      "approve(address,uint256)": {
        "details": "Set or reaffirm the approved address for an NFT. This function can be changed to payable.\r",
        "params": {
          "_approved": "Address to be approved for the given NFT ID.\r",
          "_tokenId": "ID of the token to be approved.\r"
        }
      },
      "balanceOf(address)": {
        "details": "Returns the number of NFTs owned by `_owner`. NFTs assigned to the zero address are\r considered invalid, and this function throws for queries about the zero address.\r",
        "params": {
          "_owner": "Address for whom to query the balance.\r"
        },
        "return": "Balance of _owner.\r"
      },
      "getApproved(uint256)": {
        "details": "Get the approved address for a single NFT.\r",
        "params": {
          "_tokenId": "ID of the NFT to query the approval of.\r"
        },
        "return": "Address that _tokenId is approved for.\r"
      },
      "isApprovedForAll(address,address)": {
        "details": "Checks if `_operator` is an approved operator for `_owner`.\r",
        "params": {
          "_operator": "The address that acts on behalf of the owner.\r",
          "_owner": "The address that owns the NFTs.\r"
        },
        "return": "True if approved for all, false otherwise.\r"
      },
      "name()": {
        "details": "Returns a descriptive name for a collection of NFTokens.\r",
        "return": "Representing name.\r"
      },
      "ownerOf(uint256)": {
        "details": "Returns the address of the owner of the NFT. NFTs assigned to zero address are considered\r invalid, and queries about them do throw.\r",
        "params": {
          "_tokenId": "The identifier for an NFT.\r"
        },
        "return": "Address of _tokenId owner.\r"
      },
      "safeTransferFrom(address,address,uint256)": {
        "details": "Transfers the ownership of an NFT from one address to another address. This function can\r be changed to payable.\r",
        "params": {
          "_from": "The current owner of the NFT.\r",
          "_to": "The new owner.\r",
          "_tokenId": "The NFT to transfer.\r"
        }
      },
      "safeTransferFrom(address,address,uint256,bytes)": {
        "details": "Transfers the ownership of an NFT from one address to another address. This function can\r be changed to payable.\r",
        "params": {
          "_data": "Additional data with no specified format, sent in call to `_to`.\r",
          "_from": "The current owner of the NFT.\r",
          "_to": "The new owner.\r",
          "_tokenId": "The NFT to transfer.\r"
        }
      },
      "saveTokenURI(uint256)": {
        "details": "Save the token URI inside an array.",
        "params": {
          "_tokenId": "Id for which we want uri."
        },
        "return": "URI of _tokenId."
      },
      "setApprovalForAll(address,bool)": {
        "details": "Enables or disables approval for a third party (\"operator\") to manage all of\r `msg.sender`'s assets. It also emits the ApprovalForAll event.\r",
        "params": {
          "_approved": "True if the operators is approved, false to revoke approval.\r",
          "_operator": "Address to add to the set of authorized operators.\r"
        }
      },
      "setTokenIdDefaultIndex(uint256,uint256)": {
        "details": "Set the default index for the tokenURI.",
        "params": {
          "_defaultIndex": "Index of tokenURI to set as default.",
          "_tokenId": "Id for which we want uri."
        }
      },
      "supportsInterface(bytes4)": {
        "details": "Function to check which interfaces are suported by this contract.\r",
        "params": {
          "_interfaceID": "Id of the interface.\r"
        },
        "return": "True if _interfaceID is supported, false otherwise.\r"
      },
      "symbol()": {
        "details": "Returns an abbreviated name for NFTokens.\r",
        "return": "Representing symbol.\r"
      },
      "tokenOfOwnerByIndex(address,uint256)": {
        "details": "returns the n-th NFT ID from a list of owner's tokens.\r",
        "params": {
          "_index": "Index number representing n-th token in owner's list of tokens.\r",
          "_owner": "Token owner's address.\r"
        },
        "return": "Token id.\r"
      },
      "tokenURI(uint256)": {
        "details": "A distinct URI (RFC 3986) for a given NFT.",
        "params": {
          "_tokenId": "Id for which we want uri."
        },
        "return": "URI of _tokenId."
      },
      "transferFrom(address,address,uint256)": {
        "details": "Throws unless `msg.sender` is the current owner, an authorized operator, or the approved\r address for this NFT. Throws if `_from` is not the current owner. Throws if `_to` is the zero\r address. Throws if `_tokenId` is not a valid NFT. This function can be changed to payable.\r",
        "params": {
          "_from": "The current owner of the NFT.\r",
          "_to": "The new owner.\r",
          "_tokenId": "The NFT to transfer.\r"
        }
      },
      "viewCurrentTokenURI(uint256)": {
        "details": "View the current tokenURI for a given tokenId.",
        "params": {
          "_tokenId": "Id for which we want the current uri."
        },
        "return": "URI of _tokenId."
      },
      "viewSpecificTokenURI(uint256,uint256)": {
        "details": "View a specific, already saved tokenURI.",
        "params": {
          "_index": "Index for which we want to see the tokenURI.",
          "_tokenId": "Id for which we want uri."
        },
        "return": "URI of _tokenId."
      }
    }
  },
  "userdoc": {
    "methods": {
      "approve(address,uint256)": {
        "notice": "The zero address indicates there is no approved address. Throws unless `msg.sender` is\r the current NFT owner, or an authorized operator of the current owner.\r"
      },
      "getApproved(uint256)": {
        "notice": "Throws if `_tokenId` is not a valid NFT.\r"
      },
      "safeTransferFrom(address,address,uint256)": {
        "notice": "This works identically to the other function with an extra data parameter, except this\r function just sets data to \"\"\r"
      },
      "safeTransferFrom(address,address,uint256,bytes)": {
        "notice": "Throws unless `msg.sender` is the current owner, an authorized operator, or the\r approved address for this NFT. Throws if `_from` is not the current owner. Throws if `_to` is\r the zero address. Throws if `_tokenId` is not a valid NFT. When transfer is complete, this\r function checks if `_to` is a smart contract (code size > 0). If so, it calls\r `onERC721Received` on `_to` and throws if the return value is not\r `bytes4(keccak256(\"onERC721Received(address,uint256,bytes)\"))`.\r"
      },
      "setApprovalForAll(address,bool)": {
        "notice": "This works even if sender doesn't own any tokens at the time.\r"
      },
      "totalSupply()": {
        "notice": "/ Enumerable\r"
      },
      "transferFrom(address,address,uint256)": {
        "notice": "The caller is responsible to confirm that `_to` is capable of receiving NFTs or else\r they maybe be permanently lost.\r"
      }
    }
  }
}